:020000040800F2
:10000000700E00209101000835040008B5020008B8
:1000100031040008AF0200080109000800000000D8
:10002000000000000000000000000000DB060008E7
:10003000B30200080000000037040008550800085B
:10004000AB010008AB010008AB010008AB010008E0
:10005000AB010008AB010008AB010008AB010008D0
:10006000AB010008AB010008AB010008AB010008C0
:10007000AB010008AB010008AB010008AB010008B0
:10008000AB010008AB010008AB010008AB010008A0
:10009000AB010008AB010008AB010008AB01000890
:1000A000AB010008AB010008AB010008AB01000880
:1000B000AB010008AB010008AB010008AB01000870
:1000C000AB010008AB010008AB010008AB01000860
:1000D000AB010008C5080008AB010008AB0100082F
:1000E000AB010008AB010008AB01000800F002F80A
:1000F00000F03AF80AA090E8000C82448344AAF188
:100100000107DA4501D100F02FF8AFF2090EBAE885
:100110000F0013F0010F18BFFB1A43F0010318473B
:100120001411000034110000103A24BF78C878C1BF
:10013000FAD8520724BF30C830C144BF04680C60ED
:10014000704700000023002400250026103A28BF35
:1001500078C1FBD8520728BF30C148BF0B60704739
:100160001FB51FBD10B510BD00F067F81146FFF7B1
:10017000F7FF00F06DFC00F085F803B4FFF7F2FF25
:1001800003BC00F08DF8000080F308887047000081
:100190000948804709480047FEE7FEE7FEE7FEE71B
:1001A000FEE7FEE7FEE7FEE7FEE7FEE70448054957
:1001B000054A064B7047000065080008ED0000087E
:1001C00070080020700E0020700A0020700A0020C5
:1001D00010B5203AC0F00B80B1E81850203AA0E8E2
:1001E0001850B1E81850A0E81850BFF4F5AF5FEA16
:1001F000027C24BFB1E81850A0E8185044BF18C9C9
:1002000018C0BDE810405FEA827C24BF51F8043B6F
:1002100040F8043B08BF7047D20728BF31F8023BC3
:1002200048BF11F8012B28BF20F8023B48BF00F857
:10023000012B7047704770477047754600F02CF8E7
:10024000AE4605006946534620F00700854618B0C3
:1002500020B5FFF7ABFFBDE820404FF000064FF0A0
:1002600000074FF000084FF0000B21F00701AC46EB
:10027000ACE8C009ACE8C009ACE8C009ACE8C0090A
:100280008D46704710B50446AFF300802046BDE8A8
:100290001040FFF772BF00000048704710080020B0
:1002A00001491820ABBEFEE726000200704700BFE0
:1002B000FEE7704700BFFEE71048806940F0040089
:1002C0000E4988610E4800680E4908400C490860D4
:1002D000084600680C490843094908600848083086
:1002E000006840F480700649083108600020074922
:1002F00008600749C1F8B0017047000000100240D3
:1003000004080140F00FF0FF03300300AC0121426C
:100310000000214200B5002015490861C860142082
:10032000486100208861C8610846006840F001000B
:100330000860084640680F4908400D494860084673
:1003400000680D4908400A4908600846006820F422
:10035000802008600846406820F4FE0048600020C5
:10036000886000214FF0006000F058F800BD0000E8
:10037000001002400000FFF8FFFFF6FE2DE9F041FB
:100380000746884614461D46284600F033F8C5F156
:10039000040007FA00F60F20284100EA080006438F
:1003A00006F00F06E21704EBD2625211920002F13E
:1003B000E022D2F800212146E31704EBD3635B115E
:1003C000A4EB431C012303FA0CF31A432046E31762
:1003D00004EBD3635B119B0003F1E023C3F800211E
:1003E0000348005D40EA061001490855BDE8F08168
:1003F00000E400E00146072323EA01021202054B54
:1004000018684FF6FF031840034B18431043014B85
:10041000186070470CED00E00000FA05024A0A403F
:100420000243024B1A60704780FFFF1F08ED00E097
:1004300000BFFEE77047704770B505460E460024C2
:100440000120114908601149C1F8B001052000F0F0
:1004500079FA00BF0CE000BF0D48008800F04000B2
:100460000028F9D0285D0A49091D0880601CC4B223
:10047000B442F0DB052000F065FA00200249086074
:100480000249C1F8B00170BDAC0121420000214217
:100490000038014070B50546002445F6FF7000F0B5
:1004A0005FF80446C4B90D48006940F002000B49EA
:1004B000086108464561006940F04000086145F662
:1004C000FF7000F04DF80446012C05D00348006988
:1004D00020F0020001490861204670BD0020024062
:1004E0000948C16801F0010008B10120704701F01E
:1004F000040008B10220F9E701F0100008B1032060
:10050000F4E70020F2E70000002002400348006901
:1005100040F080000149086170470000002002405F
:1005200030B503460C461546002207E0184600F099
:1005300008F824F812009B1C501C82B2AA42F5DB7A
:1005400030BD0146088870470248034948600348A7
:10055000486070472301674500200240AB89EFCD1A
:1005600070B5044600BFFFF7BBFF0546012D00D064
:1005700006E0012000F004FA601E84B2002CF2D1E3
:1005800000BF04B9FF25284670BD00002DE9F05FCB
:1005900080468A461746B8F1006F02D3334880453B
:1005A00001D3BDE8F09FFFF7CFFFA8F1006B4FEA42
:1005B0009B25CBF34809C9F50074A74200DC3C46F3
:1005C0004EE04FF0006101EB85208A142849FFF7C7
:1005D000A7FF00260BE009EB0600254931F81000C3
:1005E0004FF6FF71884200D003E0701C86B2A6422D
:1005F000F1DB00BFA6421BDA4FF0006101EB852062
:10060000FFF748FF002608E03AF8160006EB09015C
:10061000174A22F81100701C86B2A642F4DB4FF094
:10062000006101EB85208A14114900F043F804E0D1
:1006300022465146404600F03DF8A74200D110E066
:100640006D1C4FF000090AEB440A08EB4408381B04
:1006500087B2B7F5007F02DD4FF4007400E03C463E
:10066000AFE700BFFFF752FF00BF9AE700000108A5
:100670001000002070B505460E46FF20FFF770FF02
:10068000044694B90A48006940F00100084908612D
:100690002E80FF20FFF764FF0446012C05D004489C
:1006A000006920F0010002490861204670BD000089
:1006B000002002402DE9F04105460E461746002471
:1006C00007E036F814102846FFF7D4FFAD1C601C75
:1006D00084B2BC42F5DBBDE8F081704710B500F094
:1006E00001F810BD0CB5002001900090334800685F
:1006F00040F480303149086000BF3048006800F4A1
:10070000003000900198401C0190009818B90198A1
:10071000B0F5A06FF1D12948006800F4003010B1A5
:100720000120009001E0002000900098012843D1B2
:100730002348006840F0100021490860084600681E
:1007400020F0030008600846006840F002000860DE
:100750001A48406819494860084640684860084699
:10076000406840F4806048600846406820F47C108F
:1007700048600846406840F4E81048600846006851
:1007800040F08070086000BF0C48006800F0007006
:100790000028F9D00948406820F003000749486064
:1007A0000846406840F00200486000BF03484068C7
:1007B00000F00C000828F9D10CBD00000010024028
:1007C0000020024030B504460025FFF7A3FD1F4876
:1007D000006840F480301D49086000BF1B48006875
:1007E000400C0028FAD04FF4806018494860A01EE1
:1007F000C4B20846406840EA844048600846406801
:1008000040F4803048601248006840F032001049DF
:1008100008600E48006840F080700C49086000BF16
:100820000A480068400E0028FAD00848406840F0A6
:1008300002000649486005E004484068C0F38705A7
:1008400005F00305022DF7D130BD00000010024075
:100850000020024002480068401C014908607047BF
:100860000000002010B51348006840F00100114955
:10087000086008464068104908400E49486008462C
:1008800000680E4908400B4908600846006820F4DB
:10089000802008600846406820F4FE0048604FF45D
:1008A0001F008860FFF71AFF4FF0006004490860DE
:1008B00010BD0000001002400000FFF8FFFFF6FE30
:1008C00008ED00E00B49098801F0200189B10949D0
:1008D000091D0988C8B208490988B1F5804F08DAAE
:1008E0000649054A1288885403490988491C024A66
:1008F00011807047003801400A00002000100020DD
:1009000000BFFEE74FF0E021096921F004014FF03C
:10091000E0221161C21700EB5272C2F3C702074B0B
:100920001A701946097801EB4102C2EBC1114FF66A
:10093000FF7202EAC101024A1180704704000020E0
:100940000600002001460D4A12884A434FF0E0237A
:100950005A6100229A6101221A6100BF4FF0E02221
:10096000106900F001021AB100F48032002AF5D0BB
:1009700000224FF0E0231A619A61704706000020C0
:1009800001460D4A12784A434FF0E0235A61002293
:100990009A6101221A6100BF4FF0E022106900F055
:1009A00001021AB100F48032002AF5D000224FF083
:1009B000E0231A619A6170470400002010B50446D4
:1009C000206807490840B0F1005F08D16068054918
:1009D00008602068FFF7D8FB02480068804710BD18
:1009E0000000FE2F0C0000202DE9F05F06460F46A8
:1009F00090460024B3463D46A1461CE068784FEA85
:100A0000002A287850441FFA80FAAD1C2046611C49
:100A10008CB20E4921F810A0B4F5007F07D1002454
:100A20004FF400725846FFF7B1FD0BF5806B09F1EA
:100A300002001FFA80F9C145E0D324B122460349E0
:100A40005846FFF7A3FDBDE8F09F0000100400200A
:100A50008AB00024A146A04600250920FFF7B2FE77
:100A60004FF4E131482000F0D3F84820FFF74AFF67
:100A7000FFF722FC91E0022C16D14848008890B183
:100A800046480088814509D14448B0F800804FF0BD
:100A90000009002041490880032405E03F48B0F8E0
:100AA0000090002500E00025781CC7B26D1C0A20CC
:100AB000FFF748FF1E2F08D13948006808B9012008
:100AC00000E00020364908600027032C19D1B8F156
:100AD000000F16D03348406800F07F40B0F1006F3F
:100AE0000FD1182230A104A8FFF772FB4246344907
:100AF0003448FFF779FF142104A8FFF79DFC042474
:100B000000BF002C2AD1254800880F2826DD0026AA
:100B100018222DA104A8FFF75BFB31A207CA01AB85
:100B200007C300BF09E0264988190A2201A900F07D
:100B30005DF808B9012405E0761C184800880A38D9
:100B4000B042F0D800BF012C07D10025142104A821
:100B5000FFF772FC00201149088000BF012C0ED164
:100B60000E480088002803DD002500200B4908807E
:100B7000C82D04D902240020084908800025C82D6A
:100B800001D8042C09D10F48406800F07F40B0F133
:100B9000006F02D10B48FFF711FF6CE70A0000203D
:100BA000A0012142001000207570646174652073FB
:100BB000756363657373212121210D0A0000000014
:100BC000001000200080000853656E642061667488
:100BD000657220776169742031530D0A00000000AE
:100BE0000D0A7570646174650D0A000010B5034646
:100BF00003B109B9012010BD06E0521E985C8C5C5F
:100C0000604008B10120F6E7002AF6D10020F2E7A3
:100C10002DE9F05F05460E46300100F0ABF9814644
:100C20002E4905FB01F000F0A5F98246494600F087
:100C3000BFF80746384600F07DF984B2204600F040
:100C400099F98346394600F075FA82464FF08341A0
:100C500000F0A4F9814600F06DF980464FF6FF7070
:100C600000EA041404EB080084B21D48806940F0D7
:100C700004001B4988610846806940F4804088610F
:100C80001848006820F47F6016490860084600682C
:100C900040F40B6008601248C06840F4804010497E
:100CA000C8600846C06820F48040C8600E480480D0
:100CB000001D008842F20C0108430B49091D088001
:100CC0000846008840F020000880022325220321E6
:100CD0000846FFF753FBBDE8F09F000040420F00BD
:100CE00000100240040801400838014090EA010F5A
:100CF00048BF81F0004100F12E82421A3CBF801AA9
:100D000089184FEAD0524FF07F4C1CEA410FA2EBFA
:100D1000D15318BF9CEA026F00F03B804FF0004CAB
:100D20004CEA00204CEA012121FA03FC10EB0C0CE8
:100D30001ED202F1FF325FEA1C2040EBC25038BFE6
:100D400070471CF07F0F4FEA400C18BFBCF17F4F7B
:100D500038BF7047C3F12003994008BF20F001005D
:100D6000BCF17F4F38BF7047A0F1C04000F0DDB943
:100D70004FEA3C00000A40EBC25028BF1CF0FF0FB6
:100D80004FEA400CE6D018BFBCF17F4F38BF704728
:100D9000EAE79CEA026F05D010EA5C0F08BF00F09A
:100DA0000040704710B500F07AF900BF64FBBE3E0A
:100DB0004FF47F0C1CEAD0121EBF1CEAD11392EA3A
:100DC0000C0F93EA0C0F00F0858090EA010F48BFEA
:100DD00042F4807240F4000C41F400002CF07F419A
:100DE00020F07F4000B58142A2EB03020FF2081C05
:100DF000ACEB504EC0F100009EF800E04FEA4E0E02
:100E000000FB0EFC38BF49004FEA2C1C02F5FA0229
:100E10000CFB0EF34FEACE1E4FEA112C4FEAC12114
:100E20000EEB635E42EB22420EFB0CFC4FEA1C53BE
:100E300000FB03114FEA112C4FEA01310EFB0CFCB1
:100E40004FEADC4C00FB0C11C14228BF09184CEBE7
:100E500003335DF804EB10EB410143EBC250B2F5F4
:100E60007C0F38BF704729D512F0F00F1CBF00F17E
:100E7000C04000F0004070470081828384858687EF
:100E800088898B8C8D8E8F919293959697999A9C49
:100E90009D9FA0A2A3A5A7A8AAACAEB0B2B3B5B7B8
:100EA000B9BCBEC0C2C5C7C9CCCED1D4D7D9DCDF8E
:100EB000E2E6E9ECF0F3F7FAFE0000004FEA400C3E
:100EC0000CF1807CBCF17E4F28BF7047B0F1C04070
:100ED00000F02BB990EA010F0CEAD11348BF42F49D
:100EE0008072624538BF634507D213F47F0F16D076
:100EF00080EA010000F00040704710B500F0CFF824
:100F0000097EFC3E00F005B880EA010000F00040D8
:100F1000704780EA010000F0004000F006B912F4CA
:100F20007F0F04BF0248704780EA010000F0FDB85F
:100F30000000C07FC10DD1F19E0206DB4FEA002305
:100F400043F0004323FA02F07047004207D54FEA0E
:100F50004001B1F1FE4F02D24FF00000704710B5D2
:100F600000F09DF849922480002070476FEA20002D
:100F700070470000B0FA80F310FA03F2C3F19D034A
:100F80000AD0D90501EB1220530638BF704700F193
:100F9000010008BF20F00100704700004FF47F0CF3
:100FA0001CEAD0121EBF1CEAD11392EA0C0F93EA7E
:100FB0000C0F00F0478090EA010F48BF42F48072A6
:100FC0004FF0004C4CEA00204CEA012102EB0302F6
:100FD000A0FB0113A2F50002002918BF43F0010392
:100FE0005B0028BF4FEA330342EB22425FEA132C37
:100FF0004CEBC2502EBFBCEB436FB2F57C0F704779
:101000004FEA036CBCF1004F08BF20F00100B2F5BD
:101010007C0F38BF70470BD582F0FF0212F5803F7E
:10102000C8BF704700F1C040D8BF00F00040704713
:1010300000F5000C5FEA4C0C48BF7047B0F1C040AF
:1010400000F073B890EA010F0CEAD11348BF42F4E4
:101050008072624538BF634504D280EA010000F027
:101060000040704710B500F01AF800BF8900013E3B
:1010700000F007B800F009B85FEA410C5FEA1C6CA9
:1010800008D080EA010000F050B85FEA400C5FEA47
:101090001C6CF6D14FF00040A0F5800070470EF1B7
:1010A000020E2EF0030E5EF8044B244204D44FEAE5
:1010B0004102B2F17F4F11D84FEA4003B3F17F4FA5
:1010C0000CD80ED14FEAD07CB2F17F4F0CEB4C0C18
:1010D0000CF1020C08BF4CEBD17C04E04FF0080C83
:1010E00001E04FEAD17C0CEB4C0324FA03F404F04A
:1010F0000704B4F1040C06D20EEB840CBDE81040DA
:101100004CF0010C6047DFE80CF0070802024FF0DA
:101110000040A0F5800010BD0846420018BFD2F183
:10112000807288BF00F0004010BDFF2141EAD0501E
:10113000C005704780F0004090EA010F7FF5DDADFB
:1011400081F0004100F007B890EA010F48BF81F03C
:1011500000413FF5D2AD421A04D882F00042A0EB24
:10116000020011444FEAD0524FF07F4C1CEA410F6D
:10117000A2EBD15318BF9CEA026F4AD04FF0004C4B
:101180004CEA00204CEA012121FA03FCB0EB0C0CE4
:101190000FD412F0FE0F36D05FEA4C001DD50012BE
:1011A00040EBC25038BF70471CF03F0F18BF70476C
:1011B0000BE0A2F101025FEA1C2040EBC25038BFF5
:1011C00070471CF07F0F18BF7047C3F12003994090
:1011D00014BF401E20F00100704780084FEA122320
:1011E00008BF7047B0FA80FCA2EB0C02CCF1280CCF
:1011F00060FA0CF093EA122F04BF00EBC250704764
:101200004FEAC3707047130A5FEADC1008BF7047EB
:10121000F6E79CEA026F04D010EA5C0F08BF0020DA
:10122000704710B5FFF73BFF40DFF63E81F000400E
:101230007047000054120008000000201000000059
:10124000280100086412000810000020F04F000080
:101250004401000800000000000000000000000041
:04126000000000008A
:04000005080000ED02
:00000001FF
